{
  "_format": "hh-sol-artifact-1",
  "contractName": "ScissorPaperRock",
  "sourceName": "contracts/ScissorPaperRock.sol",
  "abi": [
    {
      "anonymous": false,
      "inputs": [
        {
          "indexed": false,
          "internalType": "string",
          "name": "result",
          "type": "string"
        }
      ],
      "name": "GameResult",
      "type": "event"
    },
    {
      "inputs": [
        {
          "internalType": "address",
          "name": "",
          "type": "address"
        }
      ],
      "name": "drawCount",
      "outputs": [
        {
          "internalType": "uint256",
          "name": "",
          "type": "uint256"
        }
      ],
      "stateMutability": "view",
      "type": "function"
    },
    {
      "inputs": [
        {
          "internalType": "address",
          "name": "",
          "type": "address"
        }
      ],
      "name": "lostCount",
      "outputs": [
        {
          "internalType": "uint256",
          "name": "",
          "type": "uint256"
        }
      ],
      "stateMutability": "view",
      "type": "function"
    },
    {
      "inputs": [
        {
          "internalType": "uint256",
          "name": "playerChoice",
          "type": "uint256"
        }
      ],
      "name": "play",
      "outputs": [
        {
          "internalType": "uint256",
          "name": "systemchoice",
          "type": "uint256"
        },
        {
          "internalType": "address",
          "name": "winner",
          "type": "address"
        }
      ],
      "stateMutability": "nonpayable",
      "type": "function"
    },
    {
      "inputs": [],
      "name": "rounds",
      "outputs": [
        {
          "internalType": "uint256",
          "name": "",
          "type": "uint256"
        }
      ],
      "stateMutability": "view",
      "type": "function"
    },
    {
      "inputs": [
        {
          "internalType": "address",
          "name": "",
          "type": "address"
        }
      ],
      "name": "wonCount",
      "outputs": [
        {
          "internalType": "uint256",
          "name": "",
          "type": "uint256"
        }
      ],
      "stateMutability": "view",
      "type": "function"
    }
  ],
  "bytecode": "0x608060405234801561001057600080fd5b5061057b806100206000396000f3fe608060405234801561001057600080fd5b50600436106100575760003560e01c8063353115151461005c57806363992b2d1461008f5780636898f82b146100af5780637e443c9e146100df578063a2e800ad146100ff575b600080fd5b61007c61006a36600461049d565b60036020526000908152604090205481565b6040519081526020015b60405180910390f35b61007c61009d36600461049d565b60046020526000908152604090205481565b6100c26100bd3660046104cd565b610108565b604080519283526001600160a01b03909116602083015201610086565b61007c6100ed36600461049d565b60056020526000908152604090205481565b61007c60065481565b600080600383106101505760405162461bcd60e51b815260206004820152600e60248201526d496e76616c69642063686f69636560901b604482015260640160405180910390fd5b6040805142602082015244918101919091526bffffffffffffffffffffffff1933606090811b82168184015230901b16607482015243608882015260009060039060a8016040516020818303038152906040528051906020012060001c6101b791906104e6565b905060008460028111156101cd576101cd610508565b905060008260028111156101e3576101e3610508565b905060006101f18383610214565b6006805491925060006102038361051e565b909155509397909650945050505050565b600081600281111561022857610228610508565b83600281111561023a5761023a610508565b036102d1576002805490600061024f8361051e565b909155505033600090815260056020526040812080549161026f8361051e565b91905055507f7a4de1685bde7e678248f7dc86ee1bd74b93de9036bb3a87d406a80832eba0176040516102c1906020808252600b908201526a497427732061207469652160a81b604082015260600190565b60405180910390a1506000610497565b60008360028111156102e5576102e5610508565b1480156103035750600182600281111561030157610301610508565b145b8061033b5750600183600281111561031d5761031d610508565b14801561033b5750600282600281111561033957610339610508565b145b806103735750600283600281111561035557610355610508565b1480156103735750600082600281111561037157610371610508565b145b15610409576000805490806103878361051e565b90915550503360009081526003602052604081208054916103a78361051e565b91905055507f7a4de1685bde7e678248f7dc86ee1bd74b93de9036bb3a87d406a80832eba0176040516103fa906020808252600c908201526b506c617965722077696e732160a01b604082015260600190565b60405180910390a15033610497565b600180549060006104198361051e565b90915550503360009081526004602052604081208054916104398361051e565b91905055507f7a4de1685bde7e678248f7dc86ee1bd74b93de9036bb3a87d406a80832eba01760405161048c906020808252600c908201526b53797374656d2077696e732160a01b604082015260600190565b60405180910390a150305b92915050565b6000602082840312156104af57600080fd5b81356001600160a01b03811681146104c657600080fd5b9392505050565b6000602082840312156104df57600080fd5b5035919050565b60008261050357634e487b7160e01b600052601260045260246000fd5b500690565b634e487b7160e01b600052602160045260246000fd5b60006001820161053e57634e487b7160e01b600052601160045260246000fd5b506001019056fea264697066735822122010cc8028b7582ba3bbb1312b97b7042faed59850fc0a125e31e526e279ee33c264736f6c63430008130033",
  "linkReferences": {},
  "deployedLinkReferences": {}
}